:020000040000FA
:060000000A128A110C280F
:10000800FE00030EF0000A08F1000A128A15082CF7
:100018000A128A110F288313CE30FD001730FE0014
:100028000F30FF00A03084000A168A1160250A12DA
:100038008A115230FD001430FE00C930FF004A30EA
:1000480084000A168A1160250A128A118317B130B2
:100058008400C1300A168A11C1240A128A11831336
:10006800CE308400E8300A168A11C1240A128A1197
:10007800393084004A300A168A11C1240A128A11BA
:10008800FA01FB0183010A128A114A280A128A1509
:1000980054200A128A1183160317AF01AF0A831678
:1000A80003133E0883160317AA00831603133F0899
:1000B80083160317AB008316031340088316031730
:1000C800AC00AE01A80183120313A401AA300A12DE
:1000D8008A15DC220A128A1198308400A030831213
:1000E8000313B5000408B6000C30B70035088400C7
:1000F80083130008B800B50A360884008317380847
:100108008000B60AB70B7A28103083160317AD00A3
:10011800A601A701A90190308400B6308312031309
:10012800B5000408B6000830B7003508840083130A
:100138000008B800B50A360884008317380880001C
:10014800B60AB70B99280330F7008830F80000305A
:100158000A128A1525200A128A1101300A168A11F4
:100168008F260A128A1183160317B0008830A4005C
:100178001330A500FF30A4070318A50AFF30A50710
:10018800240A031DCB28250A031DCB28CC28BE280A
:100198002F03031DD028D128A5290A30F6000030E6
:1001A800F7000A168A1137250A128A117308F9000E
:1001B8007208F8000A128A154C210A128A11760868
:1001C80083160317AE0064302E02031CEC28ED28BA
:1001D800EF286330AE003E303006031DF428F528C2
:1001E8000F291030F2008830F300AA300A168A115D
:1001F8001D260A128A11831603172E088312031369
:10020800A400AA300A128A15DC220A128A1183165F
:100218000317A901A5293D303006031D1429152906
:100228003C29280883120313B5003507983E84003B
:1002380083170008F200840A00088403F300AA3038
:100248000A168A111D260A128A1101308312031315
:10025800B500350883160317A8072E088312031361
:10026800A400AA300A128A15DC220A128A110B2964
:100278003B303006031D4129422965290130A80277
:10028800280883120313B5003507983E84008317A6
:100298000008F200840A00088403F300AA300A1652
:1002A8008A111D260A128A11831603172E08831233
:1002B8000313A400AA300A128A15DC220A128A1132
:1002C8000B293730300603196A296B2971292F3019
:1002D8003006031D70297129A5292F03031D7529CF
:1002E8007629A5290A168A1126250A128A11693043
:1002F800F6008730F7008030F8000A168A113D278B
:100308000A128A11F201C6300A168A11B7250A1292
:100318008A11F2010F300A168A11B7250A128A11BA
:10032800A53083120313B500B50B98299B29023019
:1003380083160317AF001030AD0083120313121594
:10034800A529AA30831603172F06031DAC29AD294A
:10035800112B1F303006031DB229B329112B270892
:10036800031DB729B829112BD629CC3083160317BA
:10037800AF0083120313D001D00AF129DD308316B0
:100388000317AF00F129EE3083160317AF00F129E8
:10039800FF3083160317AF00F129A1308316031726
:1003A800AF00F129260883120313B500B6013608F9
:1003B800003A0319E029F1293508003A0319B92947
:1003C800013A0319C229033A0319C729013A031943
:1003D800CC29073A0319D129F1290A168A112625A9
:1003E8000A128A1183160317A701B001112B83166D
:1003F80003172E0883120313A500AA300A128A11C4
:100408008F260A128A11352BF2010C300A168A112E
:10041800B7250A128A11A53083120313B500B50B4C
:10042800132A162A83120313121183160317AF0116
:10043800AF0A352BAA3083160317AF00BB30AD00C7
:10044800F2010C300A168A11B7250A128A11A53052
:1004580083120313B500B50B2F2A322A8312031314
:100468001211B128831603172D0883120313A50050
:100478008316031730080A128A1116250A128A11E0
:1004880083120313B500B6013608003A03194D2A42
:10049800352B3508A03A0319082A103A03191E2AE1
:1004A800352B5008031D592A5A2A5F2A0A168A1121
:1004B80026250A128A11831603172D08831203139F
:1004C800A5008316031730080A128A153E270A1258
:1004D8008A1183160317A6003E303006031D752ABD
:1004E800762A7F2A0A168A1126250A128A11831665
:1004F8000317AF01AF0A83120313D001D00A352BBB
:100508008316031730080A128A1573240A128A11EF
:100518001F30831603173006031D932A942A352BA0
:10052800AA30AF00352B0A128A158E200A128A11BA
:1005380083160317A901A90A1F303006031DA52A2F
:10054800A62A352BAA30AF000A168A1126250A12C8
:100558008A11352B831603172908031DB42AB52AD7
:10056800CF2ACA30F6008730F7008230F8000A1622
:100578008A113D270A128A110A128A157C260A1244
:100588008A1183160317A901A90A0A168A112625B2
:100598000A128A11DA2A0830F6008830F700823009
:1005A800F8000A168A113D270A128A111F3083168D
:1005B80003173006031DE12AE22A352BA62A8316E3
:1005C800031730080A128A113D230A128A111F30B4
:1005D800831603173006031DF22AF32A352BA62AA1
:1005E8008316031730080A128A151A250A128A1167
:1005F8001F30831603173006031D032B042B352BDE
:10060800AA30AF000A168A1126250A128A11831207
:100618000313D001D00A1211352B2F0883120313AC
:10062800B500B6013608003A03191B2B352B3508DF
:10063800013A0319FB29033A0319362AA33A031985
:10064800F42A0B3A0319552A663A0319842A113AEF
:100658000319972A333A0319AE2A113A0319E32AE0
:10066800352B203083160317AD00B1280A128A11E2
:100678000C2883120313A800FF30A600A7013E3000
:100688002806031D482B492B562B4C0803194D2BC4
:100698004F2B0130502B0030CC000A168A1126252A
:1006A8000A128A11831203134C0803195C2B5D2B61
:1006B800772B2630F6008730F7008030F8000A16CE
:1006C8008A113D270A128A110A128A15DF210A1295
:1006D8008A110A128A1592210A128A1183120313A7
:1006E8001211BD01152D1215D530F6008730F7000F
:1006F8008330F8000A168A113D270A128A113D3004
:10070800831203132806031D8A2B8B2BA22B3D086B
:1007180003198F2B902BA22B03303D060319952B21
:10072800962B9C2B06303D06031D9B2B9C2BA02B48
:100738003D08FE3EBD00A22B0130BD023B3028061D
:10074800031DA72BA82BC12B07303D020318AD2B87
:10075800AE2BC12B3D030319B22BB32BB92B04309D
:100768003D06031DB82BB92BBD2B3D08023EBD002D
:10077800C12B0130A5002508BD0737302806031D09
:10078800C62BC72B352C02303D020318CC2BCD2BA2
:10079800F52B3D08031DD12BD22BDD2B3230430224
:1007A8000318D72BD82BF52B0130A5002508C30734
:1007B800F52B323043020318E22BE32BEE2B3930B2
:1007C80044020318E82BE92BF52B0130A500250876
:1007D800C407DC2B333044020318F32BF42BF52B1E
:1007E800E92B03303D06031DFA2BFB2B052C353076
:1007F80045020318002C012C052C0130A500250802
:10080800C50704303D06031D0A2C0B2C152C393066
:1008180046020318102C112C152C0130A5002508B0
:10082800C60706303D06031D1A2C1B2C252C353017
:1008380047020318202C212C252C0130A50025085F
:10084800C70707303D06031D2A2C2B2C352C3930C1
:1008580048020318302C312C352C0130A50025080E
:10086800C8072F302806031D3A2C3B2C802C023059
:100878003D020318402C412C502C3D08433E840077
:10088800313083130002031C4A2C4B2C502C3D089A
:10089800433E84000130800203303D060319552C85
:1008A800562C5C2C04303D06031D5B2C5C2C6B2CF9
:1008B8003D08423E8400313083130002031C652C3E
:1008C800662C6B2C3D08423E8400013080020630C5
:1008D8003D02031C702C712C802C3D08413E840085
:1008E800313083130002031C7A2C7B2C802C3D08AA
:1008F800413E8400013080024F080319842C852C66
:100908008F2C3D08C03EF90026080A168A116F256B
:100918000A128A11152DC030F90043080A168A11E7
:100928006F250A128A11C130F90083120313440893
:100938000A168A116F250A128A11C230F9003A3054
:100948000A168A116F250A128A11C330F900831218
:10095800031345080A168A116F250A128A11C43032
:10096800F9008312031346080A168A116F250A1222
:100978008A11C530F9003A300A168A116F250A1211
:100988008A11C630F9008312031347080A168A1120
:100998006F250A128A11C730F90083120313480819
:1009A8000A168A116F250A128A11C930F9008312B2
:1009B800031343080A168A116F250A128A11CA30CE
:1009C800F9008312031344080A168A116F250A12C4
:1009D8008A11CB30F9008312031345080A168A11CD
:1009E8006F250A128A11CC30F900831203134608C6
:1009F8000A168A116F250A128A11CD30F90083125E
:100A0800031347080A168A116F250A128A11CE3075
:100A1800F9008312031348080A168A116F250A126F
:100A28008A11080083120313B10010302506031D34
:100A38001E2D1F2D2F2D033083160313C1000030E8
:100A4800C20083120313AD01AE01AF01B001FF3044
:100A5800B1000530CD0037303106031D342D352D5A
:100A6800532D04303F0203183A2D3B2D532D3F08D8
:100A78002D3E84003130831380003F08C63EF900C4
:100A88002A300A168A116F250A128A110130831238
:100A98000313A6002608BF070530CD006F2D2F30A1
:100AA8003106031D582D592D6F2D04303F020318B0
:100AB8005E2D5F2D6F2D3F082D3E8400303083134F
:100AC80080003F08C63EF9002A300A168A116F25B1
:100AD8000A128A114A2D04303F06031D742D752D04
:100AE800842EB201B301831203133208293E840015
:100AF80032080A168A11E4260A128A118313800022
:100B0800013083120313B2070318B30A0030B30786
:100B18003308803AFF0080307F02031D952D043092
:100B28003202031C982D992D772D2D30F2000430B8
:100B3800F3000030F40029300A128A15C9200A127D
:100B48008A1172087304031DAA2DAB2DAD2DB03088
:100B58008E2EFF3083160313C1070318C20AFF3015
:100B6800C20741084204031DBA2DBB2D262E83124D
:100B7800031312153C30C2000A168A1126250A12E0
:100B88008A11F2010C300A168A11B7250A128A1145
:100B9800A53083120313A600A60BD02DD32D8830C1
:100BA800F6008730F7008030F8000A168A113D27D2
:100BB8000A128A114830F6008730F700C030F80072
:100BC8000A168A113D270A128A111E2ECB30F90007
:100BD8000A30F2000030F3004208A600A7012608F8
:100BE800F4002708F5000A128A159F230A128A11B1
:100BF8007208303E0A168A116F250A128A11CC3003
:100C0800F9000A30F2000030F3008312031342089F
:100C1800A600A7012608F4002708F5000A128A157D
:100C280083220A128A117208303E0A168A116F2529
:100C38000A128A11831203134208031D242E252E3B
:100C4800EA2D5A2E0A168A1126250A128A11973079
:100C5800F6008730F7008030F8000A168A113D2721
:100C68000A128A11C030F900831603134108303E76
:100C78000A168A116F250A128A115930F600873030
:100C8800F700C230F8000A168A113D270A128A11A5
:100C98004D3083120313A8001930A7004F30A60067
:100CA800A60B542EA70B542EA80B542E0A168A11E5
:100CB80026250A128A116A30F6008730F70080303C
:100CC800F8000A168A113D270A128A1183120313A3
:100CD800BF010530CD00F201C6300A168A11B725CA
:100CE8000A128A11F2010F300A168A11B7250A1260
:100CF8008A11A53083120313A600A60B812E842E19
:100D0800831203134D08031D8A2E8B2E8D2EA030BF
:100D18008E2EFF30080083120313A8003730F60028
:100D28008730F7008030F8000A168A113D270A122A
:100D38008A110A128A15DF210A128A110A128A15E3
:100D480092210A128A11831203132808F60001302F
:100D5800F700CB30F8000A168A113D270A128A11CB
:100D68000D30F2008830F3008312031328080A16A6
:100D78008A119C270A128A1172087304031DC52E52
:100D8800C62EC92E83120313A501CE30F9000A30EE
:100D9800F2000030F300831203132508A600A70110
:100DA8002608F4002708F5000A128A159F230A125C
:100DB8008A117208303E0A168A116F250A128A11A2
:100DC800CF30F9000A30F2000030F3008312031329
:100DD8002508A600A7012608F4002708F5000A122E
:100DE8008A1583220A128A117208303E0A168A115D
:100DF8006F250A128A1108002034203454344934EB
:100E08004D344534203420342034203420342034E8
:100E180020344534563420342034533450340A3482
:100E28000034503441345334533457344F345234EB
:100E3800443420344334483441344E344734453400
:100E4800443400345334453454342034543449340D
:100E58004D3445342D343E34523455344E345F3499
:100E68004D344434003420342034543449344D341F
:100E7800453420342034203420342034453456344A
:100E88002034533450340034573461346934743462
:100E9800203466346F3472342E342E342E34363483
:100EA8003034733465346334003441347434743406
:100EB80065346D34703474342034523465346D3490
:100EC800613469346E3473340034203445344E341C
:100ED8005434453452342034503441345334533428
:100EE80057344F34523444340034203420344E3490
:100EF8004534573420345034413453345334573400
:100F08004F3452344434003459346F3475342034F7
:100F180061347234653420346C346F3463346B3428
:100F2800653464340034573472346F346E34673443
:100F38002034503461347334733477346F347234FA
:100F48006434003444346F3477346E346C346F3422
:100F58006134643420346C346F34673400344C3476
:100F68004F344734203443344C34453441345234BC
:100F78004534443400344334683461346E3467345F
:100F88006534203470347734643400345334453451
:100F98004E34443449344E3447342E342E342E34AF
:100FA8000034453444344934543420344D344F34B7
:100FB80044344534003443346C3465346134723419
:100FC80020346C346F3467340034533465347434EB
:100FD8002034743469346D346534003456346934DB
:100FE8006534773420346C346F34673400344E34CD
:100FF8004F3420344434413454344134003431348F
:101008003034313430340034533445344E3454346D
:1010180000344F344E3400344334203400344734E1
:1010280031340034473432340034473433340034F4
:1010380047343434003447344E340034473452345F
:10104800003483120313A00045287808FF007708AE
:1010580084000A168A1100200A128A15F300200853
:101068000A168A1168260A128A150130F70703182A
:10107800F80A0030F8070130F900790883120313E1
:10108800A0077808FF00770884000A168A11002054
:101098000A128A15003A031D5228532829280800E5
:1010A8008B170B170A168A110E250A128A150A16AB
:1010B8008A11BA240A128A15003083120313A90070
:1010C8000130A8008630A700A030A6000A168A11B1
:1010D800CE270A128A150A168A1149250A128A1574
:1010E8000A168A11B4240A128A150A168A11E324E8
:1010F8000A128A15003083120313A9000030A800D1
:101108002530A7008030A6000A168A116C270A121B
:101118008A150800AB280A30F20041080A168A111D
:1011280084250A128A15053E83120313A200C330D0
:10113800F7000030F80022080A128A1525200A1242
:101148008A15013083120313A1002108C1078312F5
:1011580003134E084102031CB228B3288F28410804
:101168004E06031DB828B928BB28C101CE01C0010D
:10117800C00AB330F6008730F7008230F8000A164C
:101188008A113D270A128A150800F700F628770801
:101198008400831300080319D228D328DF28720893
:1011A80084000008F5007708840000087506031914
:1011B800DE28DF28EE28720884000008F50077088A
:1011C80084000008F60075087602F200F301031C9B
:1011D800F30306290130F5007508F7070130F5001B
:1011E8007508F2070130F3020030031CF403F4021F
:1011F800730A031D0329740A031D03290429CB2834
:10120800F201F301080083120313A0002008A100D3
:101218002E290130F4020030031CF503F50273088F
:10122800F7007208F600F20A0319F30A7608840038
:101238008317771C83130008F80021088400013005
:10124800A1077808831380000008031D2C292D2985
:101258002E293D2974087504031D332934290D29C5
:101268003D2921088400831380010130F6007608A7
:10127800A1070130F4020030031CF503F502740ADB
:10128800031D4A29750A031D4A294B2935290800D7
:1012980083120313A201A3017608770403195529C1
:1012A80056298D29A101A10A642901300310F60DE0
:1012B800F70DFF3E031D5A290130A0002008A107A1
:1012C800F71F67296829592901300310A20DA30DBA
:1012D800FF3E031D692977087902031D75297608E1
:1012E8007802031C7829792980297608F80277087A
:1012F800031CF903F902221401300310F70CF60C51
:10130800FF3E031D81290130A102031D8C298D296F
:1013180068292308F7002208F6000800C030F90001
:101328008312031343080A168A116F250A128A15B5
:10133800C130F9008312031344080A168A116F2575
:101348000A128A15C230F9003A300A168A116F2536
:101358000A128A15C330F9008312031345080A16C6
:101368008A116F250A128A15C430F90083120313F3
:1013780046080A168A116F250A128A15C530F9001F
:101388003A300A168A116F250A128A15C630F900F2
:101398008312031347080A168A116F250A128A1541
:1013A800C730F9008312031348080A168A116F25FB
:1013B8000A128A15080002300A168A11B9260A127A
:1013C8008A1583120313B90001300A168A11B92647
:1013D8000A128A1583120313BA0000300A168A11FA
:1013E800B9260A128A1583120313BB003908F600BE
:1013F80004300310F60CFF3E031DFD29760803395F
:10140800303EC30039080F39303EC4003A08F600B0
:1014180004300310F60CFF3E031D0D2A7608073929
:10142800303EC5003A080F39303EC6003B08F6008A
:1014380004300310F60CFF3E031D1D2A76080739F9
:10144800303EC7003B080F39303EC800C9010800CC
:10145800C330F700CD30F600F60B302AF70B302AF0
:10146800F20133300A168A11B7250A128A151B3081
:10147800F7009E30F600F60B3F2AF70B3F2A0000D4
:10148800F20133300A168A11B7250A128A15A630D6
:10149800F600F60B4D2A0000F20133300A168A11C5
:1014A800B7250A128A15582A592A0000F20138303D
:1014B8000A168A11B7250A128A15A630F600F60B05
:1014C800632A0000F20101300A168A11B7250A12B0
:1014D8008A150430F7003D30F600F60B712AF70B39
:1014E800712A762AF2010C300A168A11B7250A12D7
:1014F8008A15A630F600F60B7F2A00000800F801CE
:10150800F51F872A882A8F2AF409F509F40A03198E
:10151800F50AF801F80AF31F922A932A982AF20981
:10152800F309F20A0319F30A7208730403199D2ACE
:101538009E2ACD2AF701F70AAC2A01300310F20DD2
:10154800F30DFF3E031DA22A0130F6007608F707C7
:10155800F31FAF2AB02AA12A73087502031DB62A01
:1015680072087402031CB92ABA2AC02A7208F40243
:101578007308031CF503F50201300310F30CF20C99
:10158800FF3E031DC12A0130F702031DCC2ACD2AD4
:10159800B02A78080319D12AD22AD72AF409F509DA
:1015A800F40A0319F50A7508F3007408F200080034
:1015B80083120313A7000A128A15DF210A128A155B
:1015C8004330F2000030F3000630F4000030F5003C
:1015D800DD300A128A1507210A128A1583120313AD
:1015E8002708F2000130F3000230F4000030F50063
:1015F800E3300A128A1507210A128A150A30F20006
:101608000030F300831203132408A500A60125085F
:10161800F4002608F5000A128A159F230A128A1573
:101628007208303E83160313E5000A30F2000030DA
:10163800F300831203132408A500A6012508F4006B
:101648002608F5000A128A1583220A128A157208DA
:10165800303E83160313E600E7010A168A11F825BF
:101668000A128A150800003083120313A400003000
:10167800A3000030A2000030A100750874047304B0
:1016880072040319482B492B962BA501A50A592B3F
:101698000130A0000310F20DF30DF40DF50DA00BB1
:1016A8004E2B0130A0002008A507F51F5C2B5D2BF1
:1016B8004C2B0130A0000310A10DA20DA30DA40D09
:1016C800A00B5F2B75087902031D742B7408780230
:1016D800031D742B73087702031D742B720876029E
:1016E800031C772B782B872B7208F6027308031CD0
:1016F800730FF7027408031C740FF8027508031CB3
:10170800750FF902211401300310F50CF40CF30CD9
:10171800F20CFF3E031D882B0130A502031D952BFB
:10172800962B5D2B2408F5002308F4002208F3000B
:101738002108F200080083120313A101F31FA52B4F
:10174800A62BAD2BF209F309F20A0319F30AA1013A
:10175800A10AF51FB02BB12BBA2BF409F509F40A2D
:101768000319F50A0130F6007608A106A201A301C3
:10177800720873040319C12BC22BF92BA001A00A0C
:10178800D02B01300310F20DF30DFF3E031DC62BC5
:101798000130F6007608A007F31FD32BD42BC52BF6
:1017A80001300310A20DA30DFF3E031DD52B7308B6
:1017B8007502031DE12B72087402031CE42BE52B50
:1017C800EC2B7208F4027308031CF503F5022214CB
:1017D80001300310F30CF20CFF3E031DED2B01301A
:1017E800A002031DF82BF92BD42B21080319FD2B7C
:1017F800FE2B032CA209A309A20A0319A30A230892
:10180800F3002208F2000800831203138C1C0D2C2D
:101818000E2C6C2C1030831603134E062730031938
:101828004F0650045104031D1A2C1B2C252C83121F
:1018380003134F080319212C232C0130242C0030CA
:10184800CF00013083160313CE0700300318013090
:10185800CF07003003180130D007003003180130DB
:10186800D10720304E064E3003194F06500451045C
:10187800031D3F2C402C692C831203134F080319B6
:10188800462C482C0130492C0030CF0000308316FC
:101898000313D1000030D0000030CF000030CE005C
:1018A80083120313420803195A2C5B2C5D2C013058
:1018B800C2024208031D612C622C692C4D080319D1
:1018C800662C672C692C0130CD02831203138C100F
:1018D80071088A00700E8300FE0E7E0E09008312C6
:1018E8000313A500500803197A2C7B2C832C0A16A5
:1018F8008A1126250A128A1583120313D00140087B
:101908000319872C882C942CFB30F6008730F700BD
:10191800C530F8000A168A113D270A128A15192DB2
:1019280025080A128A15C6250A128A153730F600C4
:101938008730F7008030F8000A168A113D270A120E
:101948008A15C030F9008316031352080A168A1143
:101958006F250A128A15C130F9008316031353083C
:101968000A168A116F250A128A15C230F9003A3010
:101978000A168A116F250A128A15C330F9008316D0
:10198800031354080A168A116F250A128A15C430DF
:10199800F9008316031355080A168A116F250A12CF
:1019A8008A15C530F9003A300A168A116F250A12CD
:1019B8008A15C630F9008316031356080A168A11C9
:1019C8006F250A128A15C730F900831603135708C2
:1019D8000A168A116F250A128A15CB30F900831668
:1019E800031358080A168A116F250A128A15CC3073
:1019F800F9008316031359080A168A116F250A126B
:101A08008A15CE30F900831603135A080A168A116C
:101A18006F250A128A15CF30F900831603135B0865
:101A28000A168A116F250A128A15080083120313F1
:101A3800A800FF30A600A70150080319242D252D62
:101A48003B2D7930F6008730F7008030F8000A1611
:101A58008A113D270A128A15203083120313A90020
:101A6800AA01AB01AC01D001CB01CB0A121504309D
:101A78003C06031D402D412D622D2930F700003012
:101A8800F80000300A128A1525200A128A158312D6
:101A98000313BC010A168A1126250A128A15153065
:101AA800F6008730F7008030F8000A168A113D27C3
:101AB8000A128A1583120313CB0112113730280634
:101AC800031D672D682D832D04303C0203186D2DEE
:101AD8006E2D832D3C08293E84003130831380000D
:101AE8003C08C63EF9002A300A168A116F250A12E8
:101AF8008A15013083120313A5002508BC072F306F
:101B08002806031D882D892DA42D04303C020318B6
:101B18008E2D8F2DA42D3C08293E84003030831350
:101B280080003C08C63EF9002A300A168A116F2543
:101B38000A128A15013083120313A5002508BC0771
:101B48004B080319A82DA92DC52D4F080319AD2D34
:101B5800AE2DB82D3C08C63EF90026080A168A1193
:101B68006F250A128A15C52D3C08C63EF9003C08A7
:101B7800293E8400831300080A168A116F250A1269
:101B88008A150800F7007A080319CB2DCC2DD42D1F
:101B980037307706031DD12DD22DD42D0130FA020E
:101BA8002F307706031DD92DDA2DE62D8312031366
:101BB8004E087A020318E12DE22DE62D0130F600D9
:101BC8007608FA070A30F2007A080A168A1184257C
:101BD8000A128A15053EF80078080A168A11E426C2
:101BE8000A128A1583160313D2000130F60076080C
:101BF800F80778080A168A11E4260A128A15831645
:101C08000313D3000130F6007608F80778080A169F
:101C18008A11E4260A128A1583160313D4000130A8
:101C2800F6007608F80778080A168A11E4260A12D8
:101C38008A1583160313D5000130F6007608F807D5
:101C480078080A168A11E4260A128A1583160313DD
:101C5800D6000130F6007608F80778080A168A11C7
:101C6800E4260A128A1583160313D7000130F600FA
:101C78007608F80778080A168A11E4260A128A15DF
:101C880083160313D8000130F6007608F8077808A1
:101C98000A168A11E4260A128A1583160313D90034
:101CA8000130F6007608F80778080A168A11E42643
:101CB8000A128A1583160313DA000130F600760833
:101CC800F80778080A168A11E4260A128A15831674
:101CD8000313DB000130F6007608F807DC010A3050
:101CE800F2007A080A168A1184250A128A15080051
:101CF8000030F3008730F4000A168A1142260A12CF
:101D08008A15352F0A30F2007B080A168A118425B5
:101D18000A128A15053EF70077080A168A11E42682
:101D28000A128A1583160313D2000130F6007608CA
:101D3800F70777080A168A11E4260A128A15831605
:101D48000313D3000130F6007608F7073A30D400C1
:101D580077080A168A11E4260A128A1583160313CD
:101D6800D5000130F6007608F70777080A168A11B9
:101D7800E4260A128A1583160313D6000130F600EA
:101D88007608F7073A30D70077080A168A11E4264A
:101D98000A128A1583160313D8000130F600760854
:101DA800F70777080A168A11E4260A128A15831695
:101DB8000313D9000130F6007608F7072030DA005F
:101DC8002030DB002030DC0077080A168A11E42670
:101DD8000A128A1583160313DD000130F60076080F
:101DE800F70777080A168A11E4260A128A15831655
:101DF8000313DE000130F6007608F7072030DF0015
:101E080077080A168A11E4260A128A15831603131C
:101E1800E0000130F6007608F70777080A168A11FD
:101E2800E4260A128A1583160313E1000130F6002E
:101E38007608F707E201D230F3000030F4000A1602
:101E48008A1142260A128A151330F3008730F400EB
:101E58000A168A1142260A128A150130F6007608F7
:101E6800FB077B08831203134E0203183C2F3D2FF8
:101E7800862E080083120313B4002A308400AC3085
:101E8800A6000408A7000A30A800260884008313C7
:101E98000008A900A60A2708840029088000A70AC4
:101EA800A80B492FBB302506031D5B2F5C2F622F23
:101EB800BE010A168A1126250A128A152F308312A6
:101EC80003133406031D692F6A2F7A2F04303E024C
:101ED80003186F2F702F7A2F0130A6002608BE072F
:101EE8000A168A1126250A128A15882F37303406D1
:101EF800031D7F2F802F882F3E080319842F852FDD
:101F0800882F0130BE02742F0430831203133E025F
:101F180003188F2F902FC32F8030F9002A300A160C
:101F28008A116F250A128A15831203133E08A60028
:101F380026072A3E840083130008F600840A000856
:101F48008403F7008230F8000A168A113D270A1226
:101F58008A15831203133E08A6002607023E2A3E6E
:101F6800840083130008F600840A00088403F7003D
:101F7800C230F8000A168A113D270A128A15043061
:101F8800831203133E06031DCA2FCB2FFC2F3E08D6
:101F9800A6002607FE3E2A3E840083130008F600AA
:101FA800840A00088403F7008230F8000A168A11B0
:101FB8003D270A128A15831203133E08A600260736
:101FC8002A3E840083130008F600840A000884036C
:101FD800F700C230F8000A168A113D270A128A153E
:101FE800C030F9002A300A168A116F250A128A159C
:101FF800831203133E080800FF1B0A2883137F1867
:1020080083170008840A0319FF0A08007F087F392C
:0C2018008A000408840A0319FF0A8200F1
:102968008316031306083F388600080083160313EE
:102978009F17831203131F14080064008001840A40
:102988000406031900340406C22C0134013401344E
:102998000534FF340134013401340A168A1119252B
:1029A8000A168A1183160313111408000A168A11CD
:1029B80019250A168A1183160313111508008312A4
:1029C800031312109210FA308316031392008C141A
:1029D8000800F2000A168A1119250A168A117208C7
:1029E80083120313930008000A168A11DA240A16C0
:1029F8008A110A168A11D1240A168A110800F200CF
:102A080072088312031399000C1E0B2D0C2D082D30
:102A18000C120800831603138801091189100A1281
:102A28008A152C220A168A11080083160313141912
:102A38001E2D1F2D192D11081F39031D242D252D7D
:102A4800192D0800F20101300A168A11B7250A1655
:102A58008A110430F7003D30F600F60B312DF70BE4
:102A6800312D362D0800831203131F151F193D2D14
:102A78003E2D3A2D1E08F500831603131E08F40098
:102A88007508F3007408F200080000300A168A116D
:102A9800B9260A168A11F60076087F39F6007608F4
:102AA800F30000300A168A1199250A168A110800BF
:102AB8007E088A007F0882000A168A115C250A1699
:102AC8008A118000840A04087D0603190034FF0A6D
:102AD8000319FE0A602D83120313A400F20179087A
:102AE8000A168A11B7250A168A11F201F20A831208
:102AF800031324080A168A11B7250A168A11080032
:102B0800F500F401751C892D8A2D8E2D7208F300AD
:102B18007308F4070310F20D0310F50C7508031D74
:102B2800962D972D862D74080800F4000A168A1130
:102B3800D1240A168A11D0300A168A11ED240A16F1
:102B48008A1174080A168A11ED240A168A11730864
:102B58000A168A11ED240A168A110A168A11DA242D
:102B68000A168A110800F5007218BB2DBF2D8312B2
:102B780003130915C22D8312031309117508880060
:102B88008914A630F300F30BC72D0000831203133A
:102B980089101B30F4009E30F300F30BD12DF40B99
:102BA800D12D00000800F2000A168A1119250A160C
:102BB8008A118316031391150A168A1119250A1604
:102BC8008A11831203131308F3007203031DED2DFA
:102BD800EE2DF22D831603139116F52D831603138C
:102BE800911211167308080083120313C0010130F3
:102BF800A1002108CE070A304E06031D042E052E1B
:102C0800062ECE010A30F2004E080A168A118425D3
:102C18000A168A11053E83120313A200DD30F7005D
:102C28000030F80022080A128A1525200A168A118F
:102C38000800F6007608F5002B2E0130F400740821
:102C4800F5070130F2070318F30A0030F307730899
:102C580083120313FF00720884000A168A110020E9
:102C68000A168A11F4007508840074088317800016
:102C78000008031D402E412E212E0800572E7408EF
:102C8800FF00730884000A168A1100200A168A11A8
:102C98000A168A1103250A168A110130F307031848
:102CA800F40A0030F407740883120313FF00730852
:102CB80084000A168A1100200A168A11003A031D98
:102CC800662E672E432E0800F6000A168A11D124B4
:102CD8000A168A11A0300A168A11ED240A168A11DA
:102CE80076080A168A11ED240A168A1173080A163C
:102CF8008A11ED240A168A110A168A11DA240A168C
:102D08008A111430F5007930F400F40B892EF50B94
:102D1800892E8E2E0800F3007308031D942E952E1D
:102D28009A2E8312031306083F39B82E3F308312B8
:102D380003130605F2003F3072060319A42EA52ED0
:102D4800AC2E4A080319A92EAA2EAC2ECA01952E1C
:102D58003F300605F2003F307206031DB42EB52E33
:102D6800B72ECA01CA0A3F300800F4000A168A11B1
:102D7800D1240A168A11D0300A168A11ED240A16AF
:102D88008A1174080A168A11ED240A168A110A167D
:102D98008A11F8240A168A11D1300A168A11ED24EC
:102DA8000A168A1100300A168A11D7250A168A11BE
:102DB800F5000A168A11DA240A168A11750808001D
:102DC800F4000A168A11D1240A168A11A0300A16AC
:102DD8008A11ED240A168A1174080A168A11ED243C
:102DE8000A168A110A168A11F8240A168A11A130BD
:102DF8000A168A11ED240A168A1100300A168A1159
:102E0800D7250A168A11F5000A168A11DA240A1635
:102E18008A11750808001F34883422348834133422
:102E2800883416348834193488341C348834F2349D
:102E38008734DF348734A6348734E9348734BF34A1
:102E480087344E344F34203444344134543441347C
:102E580000344F344E3400340334003420342034EA
:102E680020342034203420342034203420342034BA
:102E78000034F20178080A168A11B7250A168A1151
:102E88005B2FF201F20A7708FF00760884000A1621
:102E98008A1100200A168A110A168A11B7250A16FD
:102EA8008A110130F6070318F70A0030F707770888
:102EB80083120313FF00760884000A168A11002083
:102EC8000A168A11003A031D6A2F6B2F452F080036
:102ED80083120313981718162608AA002708AB00B0
:102EE8002808AC002908AD0004300310AA0DAB0D6A
:102EF800AC0DAD0DFF3E031D792F2D08F5002C08F4
:102F0800F4002B08F3002A08F2000130F9003130F0
:102F1800F8002D30F7000030F6000A128A15372322
:102F28000A168A117208FF3E8316031399000800D7
:102F3800F700A82F0130F4007408F7070130F207F2
:102F48000318F30A0030F307730883120313FF0012
:102F5800720884000A168A1100200A168A11F400E1
:102F68007708840083170008F50074087502F600D6
:102F78007608031DC02FC12FC82F770884000008CA
:102F8800031DC72FC82F9E2F7608F200F301F21BEE
:102F9800F30308008312031394152608AA002708D0
:102FA800AB002808AC002908AD0002300310AA0DB8
:102FB800AB0DAC0DAD0DFF3E031DDA2F2D08F5004E
:102FC8002C08F4002B08F3002A08F2000130F9005D
:102FD8003130F8002D30F7000030F6000A128A155B
:102FE80037230A168A117208FF3E831603139300CB
:082FF800831203139416080074
:02400E00FB3F76
:00000001FF
